{
    "contractName": "SubscriptionManager",
    "abi": [
        {
            "anonymous": false,
            "inputs": [
                {
                    "indexed": false,
                    "internalType": "address",
                    "name": "from",
                    "type": "address"
                },
                {
                    "indexed": false,
                    "internalType": "address",
                    "name": "to",
                    "type": "address"
                },
                {
                    "indexed": false,
                    "internalType": "uint256",
                    "name": "amount",
                    "type": "uint256"
                },
                {
                    "indexed": false,
                    "internalType": "uint256",
                    "name": "planId",
                    "type": "uint256"
                },
                {
                    "indexed": false,
                    "internalType": "uint256",
                    "name": "date",
                    "type": "uint256"
                }
            ],
            "name": "PaymentSent",
            "type": "event"
        },
        {
            "anonymous": false,
            "inputs": [
                {
                    "indexed": false,
                    "internalType": "address",
                    "name": "merchant",
                    "type": "address"
                },
                {
                    "indexed": false,
                    "internalType": "uint256",
                    "name": "planId",
                    "type": "uint256"
                },
                {
                    "indexed": false,
                    "internalType": "uint256",
                    "name": "date",
                    "type": "uint256"
                }
            ],
            "name": "PlanCreated",
            "type": "event"
        },
        {
            "anonymous": false,
            "inputs": [
                {
                    "indexed": false,
                    "internalType": "address",
                    "name": "subscriber",
                    "type": "address"
                },
                {
                    "indexed": false,
                    "internalType": "uint256",
                    "name": "planId",
                    "type": "uint256"
                },
                {
                    "indexed": false,
                    "internalType": "uint256",
                    "name": "date",
                    "type": "uint256"
                }
            ],
            "name": "SubscriptionCancelled",
            "type": "event"
        },
        {
            "anonymous": false,
            "inputs": [
                {
                    "indexed": false,
                    "internalType": "address",
                    "name": "subscriber",
                    "type": "address"
                },
                {
                    "indexed": false,
                    "internalType": "uint256",
                    "name": "planId",
                    "type": "uint256"
                },
                {
                    "indexed": false,
                    "internalType": "uint256",
                    "name": "date",
                    "type": "uint256"
                }
            ],
            "name": "SubscriptionCreated",
            "type": "event"
        },
        {
            "inputs": [],
            "name": "BuySubscriptionAndCreateMentorship",
            "outputs": [],
            "stateMutability": "nonpayable",
            "type": "function"
        },
        {
            "inputs": [],
            "name": "MAX_MENTEES_PER_MENTOR",
            "outputs": [
                {
                    "internalType": "uint256",
                    "name": "",
                    "type": "uint256"
                }
            ],
            "stateMutability": "view",
            "type": "function"
        },
        {
            "inputs": [
                {
                    "internalType": "address",
                    "name": "mentorsAddress",
                    "type": "address"
                },
                {
                    "internalType": "address",
                    "name": "menteesAddress",
                    "type": "address"
                }
            ],
            "name": "callCheckAddressInArray",
            "outputs": [
                {
                    "internalType": "bool",
                    "name": "",
                    "type": "bool"
                }
            ],
            "stateMutability": "view",
            "type": "function"
        },
        {
            "inputs": [
                {
                    "internalType": "uint256",
                    "name": "planId",
                    "type": "uint256"
                }
            ],
            "name": "cancel",
            "outputs": [],
            "stateMutability": "nonpayable",
            "type": "function"
        },
        {
            "inputs": [
                {
                    "internalType": "address[]",
                    "name": "array",
                    "type": "address[]"
                },
                {
                    "internalType": "address",
                    "name": "targetAddress",
                    "type": "address"
                }
            ],
            "name": "checkAddressInArray",
            "outputs": [
                {
                    "internalType": "bool",
                    "name": "",
                    "type": "bool"
                }
            ],
            "stateMutability": "pure",
            "type": "function"
        },
        {
            "inputs": [
                {
                    "internalType": "address",
                    "name": "menteesAddress",
                    "type": "address"
                }
            ],
            "name": "confirmMentee",
            "outputs": [],
            "stateMutability": "nonpayable",
            "type": "function"
        },
        {
            "inputs": [
                {
                    "internalType": "string",
                    "name": "name",
                    "type": "string"
                },
                {
                    "internalType": "string",
                    "name": "expertise",
                    "type": "string"
                },
                {
                    "internalType": "uint256",
                    "name": "yearsOfExperience",
                    "type": "uint256"
                },
                {
                    "internalType": "string",
                    "name": "bioMessage",
                    "type": "string"
                }
            ],
            "name": "createMenteeAccount",
            "outputs": [],
            "stateMutability": "nonpayable",
            "type": "function"
        },
        {
            "inputs": [
                {
                    "internalType": "string",
                    "name": "name",
                    "type": "string"
                },
                {
                    "internalType": "string",
                    "name": "expertise",
                    "type": "string"
                },
                {
                    "internalType": "uint256",
                    "name": "yearsOfExperience",
                    "type": "uint256"
                },
                {
                    "internalType": "string",
                    "name": "bioMessage",
                    "type": "string"
                }
            ],
            "name": "createMentorAccount",
            "outputs": [],
            "stateMutability": "nonpayable",
            "type": "function"
        },
        {
            "inputs": [
                {
                    "internalType": "address",
                    "name": "token",
                    "type": "address"
                },
                {
                    "internalType": "uint256",
                    "name": "amount",
                    "type": "uint256"
                },
                {
                    "internalType": "uint256",
                    "name": "frequency",
                    "type": "uint256"
                }
            ],
            "name": "createPlan",
            "outputs": [],
            "stateMutability": "nonpayable",
            "type": "function"
        },
        {
            "inputs": [
                {
                    "internalType": "address",
                    "name": "mentorsAddress",
                    "type": "address"
                }
            ],
            "name": "getMenteeCount",
            "outputs": [
                {
                    "internalType": "uint256",
                    "name": "",
                    "type": "uint256"
                }
            ],
            "stateMutability": "view",
            "type": "function"
        },
        {
            "inputs": [
                {
                    "internalType": "address",
                    "name": "menteesAddress",
                    "type": "address"
                }
            ],
            "name": "getMentorsAddress",
            "outputs": [
                {
                    "internalType": "address",
                    "name": "",
                    "type": "address"
                }
            ],
            "stateMutability": "view",
            "type": "function"
        },
        {
            "inputs": [
                {
                    "internalType": "address",
                    "name": "mentorsAddress",
                    "type": "address"
                }
            ],
            "name": "getMentorsAddressForSharedPayment",
            "outputs": [
                {
                    "internalType": "address",
                    "name": "",
                    "type": "address"
                }
            ],
            "stateMutability": "view",
            "type": "function"
        },
        {
            "inputs": [
                {
                    "internalType": "address",
                    "name": "mentorsAddress",
                    "type": "address"
                }
            ],
            "name": "getOpenSlotsForMenteesArray",
            "outputs": [
                {
                    "internalType": "address[]",
                    "name": "",
                    "type": "address[]"
                }
            ],
            "stateMutability": "view",
            "type": "function"
        },
        {
            "inputs": [
                {
                    "internalType": "address",
                    "name": "",
                    "type": "address"
                }
            ],
            "name": "mentees",
            "outputs": [
                {
                    "internalType": "bool",
                    "name": "isMentee",
                    "type": "bool"
                },
                {
                    "internalType": "address",
                    "name": "menteesAddress",
                    "type": "address"
                },
                {
                    "internalType": "string",
                    "name": "name",
                    "type": "string"
                },
                {
                    "internalType": "string",
                    "name": "expertise",
                    "type": "string"
                },
                {
                    "internalType": "uint256",
                    "name": "yearsOfExperience",
                    "type": "uint256"
                },
                {
                    "internalType": "string",
                    "name": "bioMessage",
                    "type": "string"
                },
                {
                    "internalType": "bool",
                    "name": "hasMentor",
                    "type": "bool"
                },
                {
                    "internalType": "address",
                    "name": "mentorsAddress",
                    "type": "address"
                },
                {
                    "internalType": "bool",
                    "name": "menteeHasPlan",
                    "type": "bool"
                }
            ],
            "stateMutability": "view",
            "type": "function"
        },
        {
            "inputs": [
                {
                    "internalType": "address",
                    "name": "",
                    "type": "address"
                }
            ],
            "name": "mentors",
            "outputs": [
                {
                    "internalType": "bool",
                    "name": "isMentor",
                    "type": "bool"
                },
                {
                    "internalType": "address",
                    "name": "mentorsAddress",
                    "type": "address"
                },
                {
                    "internalType": "string",
                    "name": "name",
                    "type": "string"
                },
                {
                    "internalType": "string",
                    "name": "expertise",
                    "type": "string"
                },
                {
                    "internalType": "uint256",
                    "name": "yearsOfExperience",
                    "type": "uint256"
                },
                {
                    "internalType": "string",
                    "name": "bioMessage",
                    "type": "string"
                }
            ],
            "stateMutability": "view",
            "type": "function"
        },
        {
            "inputs": [],
            "name": "nextPlanId",
            "outputs": [
                {
                    "internalType": "uint256",
                    "name": "",
                    "type": "uint256"
                }
            ],
            "stateMutability": "view",
            "type": "function"
        },
        {
            "inputs": [
                {
                    "internalType": "address",
                    "name": "subscriber",
                    "type": "address"
                },
                {
                    "internalType": "uint256",
                    "name": "planId",
                    "type": "uint256"
                }
            ],
            "name": "pay",
            "outputs": [],
            "stateMutability": "nonpayable",
            "type": "function"
        },
        {
            "inputs": [
                {
                    "internalType": "uint256",
                    "name": "",
                    "type": "uint256"
                }
            ],
            "name": "plans",
            "outputs": [
                {
                    "internalType": "address",
                    "name": "merchant",
                    "type": "address"
                },
                {
                    "internalType": "address",
                    "name": "token",
                    "type": "address"
                },
                {
                    "internalType": "uint256",
                    "name": "amount",
                    "type": "uint256"
                },
                {
                    "internalType": "uint256",
                    "name": "frequency",
                    "type": "uint256"
                }
            ],
            "stateMutability": "view",
            "type": "function"
        },
        {
            "inputs": [
                {
                    "internalType": "uint256",
                    "name": "planId",
                    "type": "uint256"
                }
            ],
            "name": "subscribe",
            "outputs": [],
            "stateMutability": "nonpayable",
            "type": "function"
        },
        {
            "inputs": [
                {
                    "internalType": "address",
                    "name": "",
                    "type": "address"
                },
                {
                    "internalType": "uint256",
                    "name": "",
                    "type": "uint256"
                }
            ],
            "name": "subscriptions",
            "outputs": [
                {
                    "internalType": "address",
                    "name": "subscriber",
                    "type": "address"
                },
                {
                    "internalType": "uint256",
                    "name": "start",
                    "type": "uint256"
                },
                {
                    "internalType": "uint256",
                    "name": "nextPayment",
                    "type": "uint256"
                }
            ],
            "stateMutability": "view",
            "type": "function"
        }
    ],
    "bytecode": "6080806040523461001657611ab3908161001b8239f35b5f80fdfe608060408181526004361015610013575f80fd5b5f91823560e01c9081630f574ba7146114b357508063113acdc414611446578063171307781461142b57806322c49bfe14611001578063303eddb514610fcc5780633121a48a14610eee57806340e58ee514610e445780634699bae914610d435780635f8d26b214610d25578063623da3d114610cb55780636e5d2efe14610bf15780636ea58de31461067c57806386517e5e14610642578063b1620616146105ed578063b25e29d3146105b1578063b62d008a14610508578063c1997204146104f4578063c407687614610353578063e95fc90f146101ae5763eed4ea8f146100fb575f80fd5b346101aa5760203660031901126101aa576001600160a01b03916101a6908290846101246116b3565b168152806020522080549261019361013e60018401611807565b61018561014d60028601611807565b9160c0610161600460038901549801611807565b9580519a8a60ff8d9c1615158c5260081c1660208b015289015260c08801906118a8565b9086820360608801526118a8565b91608085015283820360a08501526118a8565b0390f35b5080fd5b509034610350576060366003190112610350576101c96116b3565b6001600160a01b039060443590602435908316801561030c5781156102cf57821561028b57855193608085018581106001600160401b038211176102775787829160039798995233885260208801938452808801948552606088019586526002548952866020528820965116906bffffffffffffffffffffffff60a01b91828854161787556001870192511690825416179055516002840155519101556102716002546119a5565b60025580f35b634e487b7160e01b87526041600452602487fd5b855162461bcd60e51b815260206004820152601960248201527f6672657175656e6379206e6565647320746f206265203e2030000000000000006044820152606490fd5b855162461bcd60e51b81526020600482015260166024820152750616d6f756e74206e6565647320746f206265203e20360541b6044820152606490fd5b855162461bcd60e51b815260206004820152601e60248201527f616464726573732063616e6e6f74206265206e756c6c206164647265737300006044820152606490fd5b80fd5b50346101aa57806003193601126101aa5761036c6116b3565b60243560018060a01b03908183168552602092600484528486208287528452848620916003855285872093600281600187015416946103af838254161515611a32565b019586544211156104c35785546002870180548a516323b872dd60e01b81526001600160a01b03888116600483015293861690931660248401526044830152958290829060649082908e905af180156104b95792610486989995927f577462848cc2ec95e5ef95bf0b154b97340221cd1002ea0511a3877a7f20fb8c9795926104769561048b575b50508754945495516001600160a01b039384168152941690911660208401526040830193909352606082019290925242608082015290819060a0820190565b0390a16003835491015490611a25565b905580f35b816104aa92903d106104b2575b6104a281836116e3565b810190611a0d565b505f80610437565b503d610498565b89513d8c823e3d90fd5b60649088519062461bcd60e51b82526004820152600b60248201526a1b9bdd08191d59481e595d60aa1b6044820152fd5b823461035057806003193601126103505780f35b50346101aa5760203660031901126101aa576001600160a01b038061052b6116b3565b168084526001602052600160ff6005858720015416151503610562578284600592602096526001865220015460081c169051908152f35b825162461bcd60e51b815260206004820152602260248201527f4d656e74656520646f6573206e6f742068617665206d656e746f722e2e2e2079604482015261195d60f21b6064820152608490fd5b50346101aa5760203660031901126101aa576020916001600160a01b03908290826105da6116b3565b168152808552205460081c169051908152f35b50346101aa5760203660031901126101aa578060809260043581526003602052209060018060a01b03918281541692600182015416916003600283015492015492815194855260208501528301526060820152f35b50346101aa5760203660031901126101aa5760209160059082906001600160a01b0361066c6116b3565b1681528085522001549051908152f35b5090346103505761068c3661176d565b9290943315610bb5573385528460205260ff8186205416610b4c57805161016081018181106001600160401b03821117610277578252600a815261014036602083013781519460e086018681106001600160401b03821117610b38579083929161075f9452600187526020870198338a5283880195865260608801968752608088015260a087015260c08601523386528560205285209561073c85511515889060ff801983541691151516179055565b518654610100600160a81b03191660089190911b610100600160a81b0316178655565b518051906001600160401b038211610b2457819061078060018801546117cf565b601f8111610af1575b50602090601f8311600114610a83578692610a78575b50508160011b915f199060031b1c19161760018501555b519283516001600160401b0381116108f8576107d560028301546117cf565b601f8111610a45575b506020601f82116001146109da57849582939495926109cf575b50508160011b915f199060031b1c19161760028201555b608082015160038201556004810160a08301518051906001600160401b0382116109bb5761083d83546117cf565b601f8111610980575b50602090601f83116001146109175791806005949260c09694899261090c575b50508160011b915f199060031b1c19161790555b01910151908151916001600160401b0383116108f857600160401b83116108f85760209082548484558085106108de575b500190835260208320835b8381106108c1578480f35b82516001600160a01b0316818301556020909201916001016108b6565b8386528286206108f29181019086016118e6565b5f6108ab565b634e487b7160e01b84526041600452602484fd5b015190505f80610866565b838752602087209190601f198416885b818110610968575092600192859260c098966005989610610950575b505050811b01905561087a565b01515f1960f88460031b161c191690555f8080610943565b92936020600181928786015181550195019301610927565b6109ab9084885260208820601f850160051c810191602086106109b1575b601f0160051c01906118e6565b5f610846565b909150819061099e565b634e487b7160e01b86526041600452602486fd5b015190505f806107f8565b6002830185526020852090855b601f1984168110610a2d575060019394959683601f19811610610a15575b505050811b01600282015561080f565b01515f1960f88460031b161c191690555f8080610a05565b9091602060018192858b0151815501930191016109e7565b610a729060028401865260208620601f840160051c810191602085106109b157601f0160051c01906118e6565b5f6107de565b015190505f8061079f565b9250600187018652602086209086935b601f1984168510610ad6576001945083601f19811610610abe575b505050811b0160018501556107b6565b01515f1960f88460031b161c191690555f8080610aae565b81810151835560209485019460019093019290910190610a93565b610b1e9060018901885260208820601f850160051c810191602086106109b157601f0160051c01906118e6565b5f610789565b634e487b7160e01b85526041600452602485fd5b634e487b7160e01b88526041600452602488fd5b5162461bcd60e51b815260206004820152603b60248201527f7468697320616464726573732068617320616c7265616479206265656e20757360448201527f656420746f20637265617465204d656e746f72206163636f756e7400000000006064820152608490fd5b5162461bcd60e51b81526020600482015260166024820152751859191c995cdcc818d85b9b9bdd081899481b9d5b1b60521b6044820152606490fd5b50346101aa57806003193601126101aa576001600160401b03916004358381116101aa57366023820112156101aa578060040135938411610ca1578360051b835192602095610c42878401866116e3565b8452602486850192840101923684116101aa57602401915b838310610c7e578686610c7587610c6f6116cd565b906119c7565b90519015158152f35b82356001600160a01b0381168103610c9d578152918601918601610c5a565b8280fd5b634e487b7160e01b82526041600452602482fd5b50346101aa57806003193601126101aa576001600160a01b03916101a690829084610cde6116b3565b1681526004602052818120602435825260205220928354169160026001850154940154905193849384604091949392606082019560018060a01b0316825260208201520152565b50346101aa57816003193601126101aa576020906002549051908152f35b50346101aa5760209081600319360112610c9d57610d5f6116b3565b9133845283815260018060a01b0391610d81838287205460081c1633146118fc565b338552848252610d9a838287205460081c1633146118fc565b338552848252600a600582872001541015610e0c57338552848252842060050180549190600160401b8310156109bb5760018301808255831015610df857855284200191166bffffffffffffffffffffffff60a01b82541617905580f35b634e487b7160e01b86526032600452602486fd5b60649250519062461bcd60e51b8252600482015260126024820152714e6f20736c6f747320617661696c61626c6560701b6044820152fd5b50346101aa5760203660031901126101aa57610ee87fde4047f3bd050ef9b8743c61b37fd72275056d1ccb33d1eb3f22c80cb14df28991600435903385526004602052808520828652602052610ea660018060a01b0382872054161515611a32565b33808652600460209081528287208488528152828720878155600181018890556002018790559151908152908101919091524260408201529081906060820190565b0390a180f35b50346101aa5760203660031901126101aa576001600160a01b0391829060ff90839083610f196116b3565b16815260016020522092610fa7845494610f3560018201611807565b90610f94610f4560028301611807565b610f866003840154946005610f5c60048701611807565b9501549780519c8c8e8c819f161515905260081c1660208d015261012080918d01528b01906118a8565b9089820360608b01526118a8565b91608088015286820360a08801526118a8565b92828216151560c08601528160081c1660e085015260a81c1615156101008301520390f35b50346101aa57806003193601126101aa57602090610c75610feb6116b3565b610ffc610ff66116cd565b91611940565b6119c7565b509034610350576110113661176d565b8593929195519061012082016001600160401b039083811082821117610b385790879594939291875260018084526020998a95868601973389528a8701908152606087019182526080870192835260a0870195865261109f60c088019b8b8d528560e08a019a8d8c528d6101008c019e8f52339052528d2097511515889060ff801983541691151516179055565b97518654610100600160a81b03191660089190911b610100600160a81b03161786556001600160a01b03975180518785019186821161137f5790808f8f969594936110ea85546117cf565b97601f988981116113ff575b508289851160011461139e575092611393575b50505f19600383901b1c191690861b1790555b518051600288019186821161137f578e82918f61113986546117cf565b888111611353575b50828885116001146112f25750926112e7575b50505f19600383901b1c191690851b1790555b51600386015560048501935180519384116112d3578a9b61118c869c9a9b9c546117cf565b83811161129d575b5080928511600114611229575092806005959381936111e098966112029c9461121e575b50501b915f199060031b1c19161790555b0195511515869060ff801983541691151516179055565b518454610100600160a81b031916911660081b610100600160a81b0316178355565b51815460ff60a81b191690151560a81b60ff60a81b1617905580f35b015192505f806111b8565b92949596979850601f198416868d52838d20938d905b828210611286575050926005959285926112029b9a99966111e099961061126e575b505050811b0190556111c9565b01515f1960f88460031b161c191690555f8080611261565b80888697829497870151815501960194019061123f565b6112c490878c52828c208580890160051c820192858a106112ca575b0160051c01906118e6565b5f611194565b925081926112b9565b634e487b7160e01b8b52604160045260248bfd5b015190505f80611154565b8682528082208a9650939291601f198616915b82821061133a5750508411611322575b505050811b019055611167565b01515f1960f88460031b161c191690555f8080611315565b8484015186558b97909501949384019390810190611305565b611379908783528483208a80880160051c8201928789106112ca570160051c01906118e6565b5f611141565b634e487b7160e01b8e52604160045260248efd5b015190505f80611109565b8682528082208b9650939291601f198616915b8282106113e657505084116113ce575b505050811b01905561111c565b01515f1960f88460031b161c191690555f80806113c1565b8484015186558c979095019493840193908101906113b1565b611425908783528483208b80880160051c8201928789106112ca570160051c01906118e6565b5f6110f6565b50346101aa57816003193601126101aa5760209051600a8152f35b50346101aa5760209081600319360112610c9d579161146b6114666116b3565b611940565b9083519383808695860192818752855180945286019401925b82811061149357505050500390f35b83516001600160a01b031685528695509381019392810192600101611484565b91905034610c9d57602091826003193601126116af57600435928385526003815282852060018060a01b039283600183015416908483541690811561166d575060028301805487516323b872dd60e01b81523360048201526001600160a01b039390931660248401526044830152918490829060649082908c905af18015611663578760039361159f95937f577462848cc2ec95e5ef95bf0b154b97340221cd1002ea0511a3877a7f20fb8c93611646575b508354905489513381529189166001600160a01b031660208301526040820152606081019190915242608082015260a090a1015442611a25565b90835192606084018481106001600160401b03821117610b385785523380855242838601818152878701958652828a5260048552878a20898b52909452868920955186546001600160a01b0319169316929092178555915160018501559151600293909301929092559151908152602081019290925260408201527feec977e786e7248a658b0474ccf8f57f37ead019014ec4d5ba1542ddabeff1b4908060608101610ee8565b61165c90883d8a116104b2576104a281836116e3565b505f611565565b86513d8a823e3d90fd5b62461bcd60e51b815260048101859052601860248201527f7468697320706c616e20646f6573206e6f7420657869737400000000000000006044820152606490fd5b8380fd5b600435906001600160a01b03821682036116c957565b5f80fd5b602435906001600160a01b03821682036116c957565b90601f801991011681019081106001600160401b0382111761170457604052565b634e487b7160e01b5f52604160045260245ffd5b81601f820112156116c9578035906001600160401b038211611704576040519261174c601f8401601f1916602001856116e3565b828452602083830101116116c957815f926020809301838601378301015290565b60806003198201126116c9576001600160401b03906004358281116116c9578161179991600401611718565b926024358381116116c957826117b191600401611718565b92604435926064359182116116c9576117cc91600401611718565b90565b90600182811c921680156117fd575b60208310146117e957565b634e487b7160e01b5f52602260045260245ffd5b91607f16916117de565b9060405191825f82549261181a846117cf565b9081845260019485811690815f146118855750600114611845575b5050611843925003836116e3565b565b909391505f52602090815f20935f915b81831061186d57505061184393508201015f80611835565b85548884018501529485019487945091830191611855565b91505061184394506020925060ff191682840152151560051b8201015f80611835565b91908251928382525f5b8481106118d2575050825f602080949584010152601f8019910116010190565b6020818301810151848301820152016118b2565b8181106118f1575050565b5f81556001016118e6565b1561190357565b60405162461bcd60e51b815260206004820152601560248201527421b0b63632b91036bab9ba1031329036b2b73a37b960591b6044820152606490fd5b60018060a01b0390815f9116815260208181526005604083200160405180948386948454938481520193865280862095915b83831061198957505050506117cc925003826116e3565b8654811685526001968701968896509482019490920191611972565b5f1981146119b35760010190565b634e487b7160e01b5f52601160045260245ffd5b905f5b8251811015611a0657600581901b8301602001516001600160a01b038381169116146119fe576119f9906119a5565b6119ca565b505050600190565b5050505f90565b908160209103126116c9575180151581036116c95790565b919082018092116119b357565b15611a3957565b606460405162461bcd60e51b815260206004820152602060248201527f7468697320737562736372697074696f6e20646f6573206e6f742065786973746044820152fdfea2646970667358221220e5f0e66864bb1e0313f78694abba343c5995cc11a936849ab75c7eef23d5aa4d64736f6c63430008140033",
    "sourcePath": "/home/dylan/Desktop/TO DO Projects/WEB3 DEV Mentor/src/SubscriptionManager.sol",
    "compiler": {
        "name": "solc",
        "version": "0.8.20+commit.a1b79de6"
    },
    "functionHashes": {
        "BuySubscriptionAndCreateMentorship()": "c1997204",
        "MAX_MENTEES_PER_MENTOR()": "17130778",
        "callCheckAddressInArray(address,address)": "303eddb5",
        "cancel(uint256)": "40e58ee5",
        "checkAddressInArray(address[],address)": "6e5d2efe",
        "confirmMentee(address)": "4699bae9",
        "createMenteeAccount(string,string,uint256,string)": "22c49bfe",
        "createMentorAccount(string,string,uint256,string)": "6ea58de3",
        "createPlan(address,uint256,uint256)": "e95fc90f",
        "getMenteeCount(address)": "86517e5e",
        "getMentorsAddress(address)": "b62d008a",
        "getMentorsAddressForSharedPayment(address)": "b25e29d3",
        "getOpenSlotsForMenteesArray(address)": "113acdc4",
        "mentees(address)": "3121a48a",
        "mentors(address)": "eed4ea8f",
        "nextPlanId()": "5f8d26b2",
        "pay(address,uint256)": "c4076876",
        "plans(uint256)": "b1620616",
        "subscribe(uint256)": "0f574ba7",
        "subscriptions(address,uint256)": "623da3d1"
    },
    "gasEstimates": {
        "creation": {
            "codeDepositCost": "1367000",
            "executionCost": "1433",
            "totalCost": "1368433"
        },
        "external": {
            "BuySubscriptionAndCreateMentorship()": "498",
            "MAX_MENTEES_PER_MENTOR()": "209",
            "callCheckAddressInArray(address,address)": "infinite",
            "cancel(uint256)": "19372",
            "checkAddressInArray(address[],address)": "infinite",
            "confirmMentee(address)": "infinite",
            "createMenteeAccount(string,string,uint256,string)": "infinite",
            "createMentorAccount(string,string,uint256,string)": "infinite",
            "createPlan(address,uint256,uint256)": "119999",
            "getMenteeCount(address)": "2695",
            "getMentorsAddress(address)": "4973",
            "getMentorsAddressForSharedPayment(address)": "2745",
            "getOpenSlotsForMenteesArray(address)": "infinite",
            "mentees(address)": "infinite",
            "mentors(address)": "infinite",
            "nextPlanId()": "2447",
            "pay(address,uint256)": "infinite",
            "plans(uint256)": "9031",
            "subscribe(uint256)": "infinite",
            "subscriptions(address,uint256)": "7015"
        },
        "internal": {
            "createMentorship(address,address)": "infinite",
            "menteeBuysSubscription(uint256)": "infinite"
        }
    }
}